:100000000C9492060C94D9060C94D9060C94D9063B
:100010000C94D9060C94D9060C94D9060C94D906E4
:100020000C94D9060C94D9060C9423260C94F6262D
:100030000C940B1D0C94D9060C94D9060C94D9067B
:100040000C94D9060C94D9060C94D9060C94D906B4
:100050000C94D9060C94731D0C94D9060C94D906F3
:100060000C94D9060C94D9060C94D9060C94D90694
:100070000C94D9060C94D9060C94D9060C94D90684
:100080000C94D9060C94D9060C94D9060C94D90674
:100090000C94D9060C94D9060C94D9060C94D90664
:1000A0000C94D9060C94D9060C94D90635001E0080
:1000B0001F0020002100220023002400250026002C
:1000C00027002D002E002A002B0014001A00080023
:1000D000150017001C0018000C00120013002F0060
:1000E00030003100390004001600070009000A0042
:1000F0000B000D000E000F0033003400000028003C
:10010000E10000001D001B000600190005001100A1
:1001100010003600370038000151E1000151E200C3
:10012000E300000000002C0000000000000035008B
:10013000E700E600E400015129003A003B003C00E2
:100140003D003E003F0040004100420043004400AB
:1001500045004C00E300E000010001000100010047
:1001600001000100010001004B000100010001003D
:100170000100AA00A900A8000100010050005100E0
:1001800052004F005000010000000100010000007B
:10019000010001000100010001004E0001004E00BD
:1001A0000100010001000100010001000100000048
:1001B00000002C01000000000000007001000100A0
:1001C0000100010001000100010001000100010027
:1001D0000100010001000100010001000100010017
:1001E0000100010001000100010001000100010007
:1001F00001000100010001000100010001000100F7
:1002000001000100010001000100010001000100E6
:1002100001000100000001000100000001000100D8
:1002200001000100010001000100010001000100C6
:1002300001000100010001000100000000000100B8
:1002400000000000000001000100010001000100A9
:100250000100010001000100010001000100010096
:100260000100010001000100010001000100010086
:100270000100010001000100010001000100010076
:100280000100010001000100010001000100010066
:100290000100010001000100010001000100010056
:1002A0000000010001000000010001000100010048
:1002B0000100010001000100010001000100010036
:1002C000010001000100000000000100000000002A
:1002D0000000010001000100010001000100010017
:1002E0000100010001000100010001000100010006
:1002F00001000100010001000100010001000100F6
:1003000001000100010001000100010001000100E5
:1003100001000100010001000100010001000100D5
:1003200001000100010001000100010000000100C6
:1003300001000000010001000100010001000100B6
:1003400001000100010001000100010001000100A5
:10035000010000000000010000000000000001009A
:100360000100010001000100010001000100010085
:100370000100010001000100010001000100010075
:100380000100010001000100010001000100010065
:100390000100010001000100010001000100010055
:1003A0000100010001000100010001000100010045
:1003B0000100010001000100000001000100000037
:1003C0000100010001000100010001000100010025
:1003D0000100010001000100010001000100000016
:1003E0000000010000000000000001000100010009
:1003F00001000100010001000100010001000100F5
:1004000001000100010001000100010001000100E4
:1004100001000100010001000100010001000100D4
:1004200001000100010001000100010001000100C4
:1004300001000100010001000100010001000100B4
:1004400001000100000001000100000001000100A6
:100450000100010001000100010001000100010094
:100460000100010001000100010000000000010086
:100470000000000000000100010001000100010077
:100480000100010001000100010001000100010064
:100490000100010001000100010001000100010054
:1004A0000100010001000100010001000100010044
:1004B0000100010001000100010001000100010034
:1004C0000100010001000100010001000100010024
:1004D0000000010001000000010001000100010016
:1004E0000100010001000100010001000100010004
:1004F00001000100010000000000010000000000F8
:1005000000000100010001000100010001000100E4
:1005100001000100010001000100010001000100D3
:1005200001000100010001000100010001000100C3
:1005300001000100010001000100010001000100B3
:1005400001000100010001000100010001000100A3
:100550000100010001000100010001000000010094
:100560000100000001000100010001000100010084
:100570000100010001000100010001000100010073
:100580000100000000000100000000000000010068
:100590000100010001000100010001000100010053
:1005A0000100010001000100010001000100010043
:1005B0000100010001000100010001000100010033
:1005C0000100010001000100010001000100010023
:1005D0000100010001000100010001000100010013
:1005E0000100010001000100000001000100000005
:1005F00001000100010001000100010001000100F3
:1006000001000100010001000100010001000000E3
:1006100000000100000000000000010001000100D6
:1006200001000100010001000100010001000100C2
:1006300001000100010001000100010001000100B2
:1006400001000100010001000100010001000100A2
:100650000100010001000100010001000100010092
:100660000100010001000100010001000100010082
:100670000100010000000100010000000100010074
:100680000100010001000100010001000100010062
:100690000100010001000100010000000000010054
:1006A0000000000000000100010001000100010045
:1006B0000100010001000100010001000100010032
:1006C0000100010001000100010001000100010022
:1006D0000100010001000100010001000100010012
:1006E0000100010001000100010001000100010002
:1006F00001000100010001000100010001000100F2
:1007000000000100010000000100010001000100E3
:1007100001000100010001000100010001000100D1
:1007200001000100010000000000010000000000C5
:1007300000000100010001000100010001000100B2
:1007400001000100010001000100010001000100A1
:100750000100010001000100010001000100010091
:100760000100010001000100010001000100010081
:100770000100010001000100010001000100010071
:100780000100010001000100010001000000010062
:100790000100000001000100010001000100010052
:1007A0000100010001000100010001000100010041
:1007B0000100000000000100000000000000010036
:1007C0000100010001000100010001000100010021
:1007D0000100010001000100010001000100010011
:1007E0000100010001000100010001000100010001
:1007F00001000100010001000100010001000100F1
:1008000001000100010001000100010001000100E0
:1008100001000100010001000000010001000000D2
:1008200001000100010001000100010001000100C0
:1008300001000100010001000100010001000000B1
:1008400000000100000000000000010001000100A4
:100850000100010001000100010001000100010090
:100860000100010001000100010001000100010080
:100870000100010001000100010001000100010070
:100880000100010001000100010001000100010060
:100890000100010001000100010001000100010050
:1008A0000100010000000100010000000100010042
:1008B0000100010001000100010001000100010030
:1008C0000100010001000100010000000000010022
:1008D0000000000000000100010001000100010013
:1008E0000100010001000100010001000100010000
:1008F00001000100010001000100010001000100F0
:1009000001000100010001000100010001000100DF
:1009100001000100010001000100010001000100CF
:1009200001000100010001000100010001000100BF
:1009300000000100010000000100010001000100B1
:10094000010001000100010001000100010001009F
:100950000100010001000000000001000000000093
:100960000000010001000100010001006432146474
:100970003214783C1E1E140A05000000000101011B
:100980000202030405050607090A0B0C0E0F1112DB
:10099000141517191B1D1F212325282A2C2F31342C
:1009A00036393B3E414346494C4F5255585A5D619A
:1009B00064676A6D707376797C7F8386898C8F9289
:1009C00095989B9EA2A5A7AAADB0B3B6B9BCBEC16F
:1009D000C4C6C9CBCED0D3D5D7DADCDEE0E2E4E6BC
:1009E000E8EAEBEDEEF0F1F3F4F5F6F8F9FAFAFBDC
:1009F000FCFDFDFEFEFEFFFFFFFFFFFFFFFEFEFE14
:100A0000FDFDFCFBFAFAF9F8F6F5F4F3F1F0EEED82
:100A1000EBEAE8E6E4E2E0DEDCDAD7D5D3D0CECB11
:100A2000C9C6C4C1BEBCB9B6B3B0ADAAA7A5A29E83
:100A30009B9895928F8C898683807C797673706D74
:100A40006A6764615D5A5855524F4C494643413E6E
:100A50003B393634312F2C2A282523211F1D1B1901
:100A600017151412110F0E0C0B0A090706050504C1
:100A7000030202010101000000000000000001016A
:100A8000010101010101010202020202020202024D
:100A9000030303030303030304040404040405051C
:100AA00005050506060606060707070708080808DD
:100AB0000909090A0A0A0A0B0B0B0C0C0C0D0D0D87
:100AC0000E0E0F0F0F101011111112121313141418
:100AD000151516161717181819191A1A1B1C1C1D8C
:100AE0001D1E1F1F202021222223242525262727E3
:100AF00028292A2B2B2C2D2E2F2F30313233343511
:100B000036363738393A3B3C3D3E3F40414243441C
:100B1000464748494A4B4C4D4F50515253555657F2
:100B2000585A5B5C5E5F606263646667696A6C6D9D
:100B30006E707173747678797B7C7E808183848615
:100B4000888A8B8D8F91929496989A9B9D9FA1A352
:100B5000A5A7A9ABADAFB1B3B5B7B9BBBDBFC1C454
:100B6000C6C8CACCCFD1D3D6D8DADCDFE1E4E6E818
:100B7000EBEDF0F2F5F7FAFCFF12036B006500797C
:100B80000062006F006100720064000000160371D3
:100B9000006D006B006200750069006C0064006508
:100BA00000720000000403090409026D0004010042
:100BB000A0FA09040000010301010009211101004C
:100BC000012240000705810308000A090401000111
:100BD00003010200092111010001224D00070582D5
:100BE0000308000A090402000103000000092111A2
:100BF0000100012236000705830308000A090403E7
:100C00000001030000000921110100012239000741
:100C10000584032000011201100100000008EDFE10
:100C2000606001000102000105010906A10105073C
:100C300019E029E7150025019508750181020508CD
:100C40001901290595057501910295017503910119
:100C50000507190029F71500250195F8750181028E
:100C6000C005010980A10185021601002603001AB2
:100C700081002A8300751095018100C0050C0901CF
:100C8000A1018503160100269C021A01002A9C027C
:100C9000751095018100C005010902A1010901A19A
:100CA0000005091901290515002501950575018122
:100CB000029501750381010501093009311581256E
:100CC0007F95027508810609381581257F95017584
:100CD000088106050C0A38021581257F95017508E3
:100CE0008106C0C005010906A101050719E029E731
:100CF000150025019508750181029501750881018E
:100D000005081901290595057501910295017503DD
:100D100091010507190029FF150026FF00950675AA
:100D2000088100C011241FBECFEFDAE0DEBFCDBFC7
:100D300004B603FE27C08091690290916A02A091D7
:100D40006B02B0916C028730904BA740B04BD1F44E
:100D50001092690210926A0210926B0210926C0259
:100D600014BE84B7877F84BF0FB6F894A89580918E
:100D70006000886180936000109260000FBEE0E028
:100D8000F8E3099511E0A0E0B1E0E2EAF4E502C081
:100D900005900D92AC33B107D9F722E0ACE3B1E096
:100DA00001C01D92A936B207E1F70E9470230C948E
:100DB0004F2A0C94000090E080E008950895089573
:100DC00081E0089581FF03C0229A2A98089522980D
:100DD000FCCF81E008950C94E0060E946A152FEF85
:100DE00084E39CE0215080409040E1F700C0000087
:100DF0000C94981DFF920F931F93CF93DF938C0158
:100E0000FC01C081D18180918D01811148C0828116
:100E1000882309F43FC0CE010E94D11AF82E682F12
:100E2000CE010E94771ABE018F2D0E94C108EC01ED
:100E3000B8010E94EB06882309F478C0B801CE01FE
:100E40000E94F10A882309F471C0C633F0E7DF0776
:100E500009F484C0C0F5C53190E7D90728F5C23040
:100E6000E0E7DE0708F099C0C115F0E7DF0709F4F5
:100E700058C0C130D04709F460C081E080933E0182
:100E800080933F01C801DF91CF911F910F91FF9097
:100E90000C94E906CE010E94A61AF82EC4CFCE010A
:100EA0000E94D11ABE01C1CFC43390E7D90709F41B
:100EB0004EC0C533D04709F7F80182818823B1F1CC
:100EC0000E94EE0E33C0CA33F0E7DF0709F457C0C3
:100ED00070F4F8018281C833F0E7DF0709F44AC0F3
:100EE00008F443C0882311F10E94320E1FC0CC3396
:100EF000E0E7DE0709F4D5C008F448C0CD33D04799
:100F000009F0BBCFF8018281882309F4F1C0109267
:100F10003F010E943D1D90933D0180933C0180E282
:100F2000CDC0F801828181110E94ED0680E0DF9141
:100F3000CF911F910F91FF900895F801828188232E
:100F4000A9F380912002816080932002EFCFF80105
:100F50008281882359F30E94F80EE8CFF80182813C
:100F6000882321F30E94E30DE1CF8823F9F20E9448
:100F7000FB0DDCCF8823D1F20E941A0ED7CFF801E7
:100F80008281882399F20E944A0ED0CFF801828193
:100F9000882361F20E94620EC9CFF8018281882302
:100FA00009F470CF0E948E1C811102C00E94681C3F
:100FB0000E94AB1C90E090935A0280935902FE016C
:100FC000E350F047809159028160E231F105C8F4A5
:100FD000E451F84F0C94FC29FE070A080E08120889
:100FE00016081A081E08220826082A082E083208A1
:100FF00036083A083E08420846084A0880915902D5
:10100000826080935902809159020E94AF1C0E9415
:101010006A158CCF809159028460F3CF8091590278
:101020008860EFCF809159028061EBCF80915902A7
:101030008062E7CF809159028064E3CF80915902AA
:101040008068DFCF809159028460EACF8091590295
:101050008E7FD7CF809159028D7FD3CF8091590257
:101060008B7FCFCF80915902877FCBCF8091590260
:101070008F7EC7CF809159028F7DC3CF8091590257
:101080008F7BBFCF809159028F77BBCF8091590260
:101090008B7FEACF90915902892F97FB87F980586F
:1010A000B0CFF8018281882361F010923E010E9446
:1010B0003D1D90933D0180933C0182E00E94D4123B
:1010C00035CF80913E0181110FC080913C019091FC
:1010D0003D010E94491D883C910530F486E20E9442
:1010E000A91186E20E94851282E00E94DB121ECFC7
:1010F00080913F0181110FC080913C0190913D0191
:101100000E94491D883C910530F487E20E94A91194
:1011100087E20E94851280E2E8CF0C94420B269A67
:101120002E988FEF9FEF909387008093860082E246
:101130008093800089E1809381000C9436210E9485
:101140008F080C94400B2E9881110AC0809180006A
:101150008F7D8093800010928B0010928A000895FA
:10116000809180008062809380008FEF9FEF90934A
:101170008B0080938A0008950C94E2060C94BC08BE
:101180000895972F70E02EE0929F600D711D11243D
:10119000FB0196E4899FE00DF11D1124EE0FFF1F66
:1011A000E455FF4F859194910895FC01EE0FFF1FC8
:1011B000E459F64F8591949108950E94C1080E94C8
:1011C000700A811520E5920708F040C0811530E4CF
:1011D000930708F0FAC0883E910518F5803E910506
:1011E00008F07DC1883A910580F4853A910508F0B0
:1011F00087C08130910509F472C120F084309105D7
:1012000008F06DC190E080E008958D3B910508F4F1
:1012100082C0803C9105B0F3805C91090E94D508A2
:101220000895811540E2940750F4811521E092075A
:1012300008F055C1803F910528F390650895811508
:1012400030E3930708F0BEC09F70E8CF811545E5F5
:10125000940760F5811524E5920708F0E5C0811533
:1012600032E5930750F4811541E5940708F4B0C0C6
:10127000982F8827816F906A0895282F26952695A4
:10128000AC01437055278115934508F0BEC081E03D
:1012900090E002C0880F991F4A95E2F740E2249F30
:1012A00090011124822B932B9C680895803340E792
:1012B000940798F4803220E7920708F0BFC08115A8
:1012C00036E5930708F4B5C09C0130569F70211590
:1012D000304108F097CF90620895813320E792075C
:1012E00009F4B3C008F4AEC0823340E7940709F4B0
:1012F000AFC08333904709F085CF80E093ED089528
:10130000853A910509F4A7C0863A910509F0A6C06F
:1013100082E890E40895883A910509F4A2C0893AD8
:10132000910509F4A1C08A3A910509F4A0C08B3A4D
:10133000910509F49FC08C3A910509F49EC08B3B3E
:10134000910509F49DC08C3B910509F49CC08D3A30
:10135000910509F49BC0803B910509F49AC08E3A2F
:10136000910509F499C08F3A910509F498C0813B21
:10137000910509F497C0823B910509F496C0833B1F
:10138000910509F495C0843B910509F494C0853B0F
:10139000910509F493C0863B910509F492C0873BFF
:1013A000910509F491C0883B910509F490C0893BEF
:1013B000910509F48FC08A3B910509F48EC080E045
:1013C00094E408959927906C08959F70906A089509
:1013D0009C0154E0369527955A95E1F7922F93702A
:1013E000482F437021E030E002C0220F331F4A959E
:1013F000E2F73C68392B86958695837040E2849F9E
:10140000C0011124822B932B089581E090E002C04B
:10141000880F991F4A95E2F740E2249F900111241A
:10142000822B932B9A680895982F8827846F906A4F
:101430000895982F882788279F714DCF8052904715
:10144000946D089580E091ED089580E090ED089509
:1014500080E092ED089581E890E4089583E890E4B7
:10146000089582EE94E4089589EE94E408958AEE56
:1014700094E4089585EB94E4089586EB94E408954C
:1014800083EB94E4089584EB94E4089587EB94E46B
:1014900008958CEC94E408958DEC94E4089583E829
:1014A00095E408958AE895E4089582E995E408951D
:1014B00084E995E4089581E296E4089583E296E450
:1014C000089584E296E4089585E296E4089586E21C
:1014D00096E4089587E296E408958AE296E40895F2
:1014E0008238910549F1B0F48133910509F45CC06B
:1014F00048F48932910509F452C08A32910509F401
:1015000058C008958533910509F444C08933910585
:1015100099F00895833E910531F138F4803E9105AC
:1015200091F0823E9105B1F00895863E910511F14A
:10153000873E910541F10895209159022370C9F029
:1015400080EE90E008952091590220FF12C089E3B7
:1015500090E008952091590222FF0BC024FF2EC075
:1015600090E080E008952091590222FD2AC024FDD8
:10157000F7CF08952091590223FFFBCF24FDF0CF30
:1015800087EE90E008952091590223FFF0CF86EE78
:1015900090E008952091590225FD16C008952091EC
:1015A000590225FD14C008952091590226FD12C04C
:1015B00008952091590226FD10C0089583EE90E011
:1015C000089582EE90E0089589E290E0089585E321
:1015D00090E008958AE290E0089581E390E0C9CF19
:1015E00008950F931F93CF938C01FB01828181118A
:1015F00006C0C1E08C2FCF911F910F910895C0912B
:101600004D01C11125C00531104799F70E94F00A1C
:1016100081E080934D010E943D1D90934C01809389
:101620004B01109240011092420110924101109220
:10163000440110924301109246011092450110920C
:1016400048011092470110924A0110924901D2CFED
:1016500080914B0190914C010E94491D883C91055D
:1016600040F680914001E82FF0E0EE0FFF1FEF5BA6
:10167000FE4F118300838F5F80934001C0E0BACF9B
:101680000C94DE060C94DF06CF93DF9385B7806859
:1016900085BF85B7806885BFA2E2B1E047E251E02F
:1016A000C1E0D0E08D91E82FE295EF70F0E061A10C
:1016B0008F709E0101C0220F8A95EAF7922F9095B4
:1016C000962391A382A1822B82A34A175B0751F72D
:1016D000A4E1B1E061E070E08D91E82FE295EF7058
:1016E000F0E041A18F709B0101C0220F8A95EAF7BB
:1016F000922F9095942391A382A1822B82A381E0C3
:10170000A232B80749F7109259011092580110926D
:101710004F0110924E0110925B0110925A011092EB
:1017200051011092500110925D0110925C011092D3
:1017300053011092520110925F0110925E011092BB
:1017400055011092540110926101109260011092A3
:10175000570110925601DF91CF910C949F086F9220
:101760007F929F92AF92BF92CF92DF92EF92FF92C1
:101770000F931F93CF93DF93CEE4D1E002E211E009
:10178000EE24E394F12CBB24B394C880D980198251
:101790001882D8018D918D01E82FE295EF70F0E06D
:1017A00091A18F70970101C0220F8A95EAF7892FC6
:1017B000822B81A382A1A22EA0948A2182A3B0EAC7
:1017C000BA95F1F784E1682E81E0782E90E080E010
:1017D000D3017D913D01472F42954F7050E0DA01D2
:1017E00090969C90488159817F70D70102C0AA0FC2
:1017F000BB1F7A95E2F7BD01692109F06FC0B701FF
:10180000082E02C0660F771F0A94E2F7462B572B6B
:101810005983488301968E309105D1F681A18A21A2
:1018200081A382A1282B22A388819981C816D90679
:1018300041F0B09262010E943D1D9093640180933B
:1018400063012296B1E007321B0709F09ECF809119
:101850006201882391F180916301909164010E945B
:10186000491D069750F180914E0190914F01909340
:1018700059018093580180915001909151019093AA
:101880005B0180935A018091520190915301909392
:101890005D0180935C01809154019091550190937A
:1018A0005F0180935E018091560190915701909362
:1018B000610180936001109262010E948D0881E0B5
:1018C000DF91CF911F910F91FF90EF90DF90CF901C
:1018D000BF90AF909F907F906F90089570E060E010
:1018E00095CFE82FF0E0EE0FFF1FE85AFE4F808102
:1018F0009181089508953EB1242F209523233EB170
:10190000432B3FB7F894FC01680F791FE617F707E0
:1019100011F43FBF0895819198E04EB9000000C0D6
:1019200087FF2EB9880F000000C000C000C02EB98C
:1019300000C09A9591F7EACF2DB1242B2DB99B01C8
:10194000220F331F620F731F0E947B0C87EC90E005
:101950000197F1F700C00000089544E00C949C0C3E
:10196000CF92DF92EF92FF920F931F93CF93DF936B
:10197000E901662309F466C0E42EF12CEFEFF0E0F4
:10198000E61BF109EE9D8001EF9D100DFE9D100DEF
:101990001124212FE12FFF27EE1AFF0A5CE3C52E49
:1019A000D12CB6010E94D429FB01BC01E69EC001E6
:1019B000E79E900DF69E900D1124B6010E94D42949
:1019C000E230F10589F168F4812F262F210F30973D
:1019D00081F0242F461B319761F080E020E040E049
:1019E00008C0E430F10551F128F1842F861B3597AA
:1019F000A1F7E42FF0E0E758F54F4491E22FF0E033
:101A0000E758F54F9491E82FF0E0E758F54FE4914F
:101A100049839883EA83DF91CF911F910F91FF90C3
:101A2000EF90DF90CF900895862F810FE42F412F04
:101A30002E2FDFCFE42FE61B842FF9CF842F462FE4
:101A4000410FD7CF842F242FD4CF88E090E00C947F
:101A50000F2AAB01BC0188E090E00C942D2AEDE444
:101A6000F2E083E0808310924E028FEF82838383C3
:101A700060914D0270914E0280914F029091500200
:101A80000C94290D70E060E085E592E00C94AD0CBB
:101A9000EF92FF920F931F93CF93DF9300D01F928B
:101AA000CDB7DEB7182FE92EF62E042F80914D0208
:101AB00090914E02A0914F02B0915002809351023A
:101AC00090935202A0935302B093540280914D021E
:101AD00080FF1CC09E012F5F3F4F812F9E2D0E94D3
:101AE000B00C8091510210FB87F98093510216953A
:101AF000809152028078812BE0FA87F9809352021C
:101B0000F0925302009354020E94420D0F900F90E6
:101B10000F90DF91CF911F910F91FF90EF9008955B
:101B20000F931F93CF93DF93EC01062F142F909107
:101B30004D0290FF43C0892F8E77823021F5CE0170
:101B40000E94480D80914D02C0FB87F980934D02A1
:101B5000C69580914E028078C82BD0FBC7F9C09300
:101B60004E0200934F021093500260914D0270910B
:101B70004E0280914F0290915002DF91CF911F91C0
:101B80000F910C94290D892F86958F732EE3280FC2
:101B90002F73243018F410915002D4CF865C8F73C9
:101BA000893080F6991F9927991FD0914E02CD2F29
:101BB000CC0FC92BD7FBDD27D0F9C4CFDF91CF9154
:101BC0001F910F910895EDE4F2E02081221F22275A
:101BD000221F30914E02432F440F842F822B37FB5C
:101BE000992790F9089668E671E00E94E8294381F8
:101BF00062810C94900D20914D02221F2227221FFA
:101C000030914E02432F440F842F822B37FB9927AC
:101C100090F98830910540F4805A9E4F40915002CF
:101C200060914F020C94900D089768E671E00E9455
:101C3000E829F4CF60914F02683F90F4685F80918B
:101C40004D02881F8827881F90914E02292F220F4E
:101C500097FB992790F940915002822B0C94900D9C
:101C60006FEFEDCF60914F02683090F06850809137
:101C70004D02881F8827881F90914E02292F220F1E
:101C800097FB992790F940915002822B0C94900D6C
:101C900060E0EDCF40915002483F90F4485F809162
:101CA0004D02881F8827881F90914E02292F220FEE
:101CB00097FB992790F960914F02822B0C94900D1D
:101CC0004FEFEDCF40915002483090F04850809156
:101CD0004D02881F8827881F90914E02292F220FBE
:101CE00097FB992790F960914F02822B0C94900DED
:101CF00040E0EDCF90914D0290FF3BC09178811173
:101D000026C0926090934D0260914D0270914E02F8
:101D100080914F02909150020E94290D80914D02B6
:101D2000982F9E779230D9F410927A01881F8827D5
:101D3000881F90914E02292F220F97FB992790F927
:101D40004091500260914F02822B0C94900D89318A
:101D500010F09063D7CF8F73880F982BD3CF982F25
:101D60009695925C9F73963108F791E090937A0173
:101D7000DDCF08958091200281608093200281E070
:101D800080937B010E948E1C811104C00E94681CFC
:101D90000E942F0D0E94250D60934D0270934E02FC
:101DA00080934F02909350026E7761F40E942F0D42
:101DB0000E94250D60934D0270934E0280934F0256
:101DC0009093500281E080937A0180914D0280FFD0
:101DD00004C086958F730C947A0E089580914D02FD
:101DE00086958F738F5F893108F081E00C947A0EAD
:101DF00090914D02892F8E7F90FF816080934D02DC
:101E000060914D0270914E0280914F02909150026C
:101E10000E94290D80914D0280FF04C086958F732A
:101E20000C947A0E10927A012FEF80E792E0215005
:101E300080409040E1F700C000000C94420DCF9329
:101E4000C82F80917801909179010E94491DEC2F53
:101E5000F0E0EB58F64FE491E817190609F010F599
:101E60000E943D1D9093790180937801E091770164
:101E7000F0E0E758F64F449180914D02881F882783
:101E8000881F90914E02292F220F97FB992790F9D6
:101E900060914F02822B0E94480D809177018F5FE5
:101EA00080937701CF910895CF93C82F80917501CA
:101EB000909176010E94491DEC2FF0E0EE58F64F0C
:101EC000E491E817190609F0E8F40E943D1D90938B
:101ED0007601809375014091500260914F0280918C
:101EE0007301909174010E94480D8091730190914B
:101EF0007401019668E671E00E94D4299093740100
:101F000080937301CF910895CF93C82F8091710171
:101F1000909172010E94491DEC2FE695F0E0EE5879
:101F2000F64FE491E817190609F0B8F40E943D1D38
:101F300090937201809371010E94420D80916F0114
:101F400090917001C0FF0BC0019668E671E00E949D
:101F5000D4299093700180936F01CF9108950197D8
:101F6000F8CFCF93DF93C82FDFEF80FFD1E08091D0
:101F70006D0190916E010E94491DC695EC2FF0E015
:101F8000E159F64FE491E817190609F088F40E9428
:101F90003D1D90936E0180936D010E94420DD130E2
:101FA00061F480916C01811106C08FEF80936C0108
:101FB000DF91CF9108958150F9CF0E94022ACF93EB
:101FC000C82F80916A0190916B010E94491DEC2FEE
:101FD000F0E0E459F64FE491E817190609F0B0F47F
:101FE0000E943D1D90936B0180936A010E94420DF7
:101FF0009091000180916901913071F48A3F44F41D
:1020000089EF809369018FEF80930001CF9108954C
:10201000815080936901FACF87302CF086E080935D
:10202000690181E0F1CF8F5FF4CF809167019091DA
:1020300068010E94491D883E934098F00E943D1D12
:10204000909368018093670180916501909166018A
:1020500001968170992790936601809365010C9495
:10206000420D089580917A01882371F180914D028B
:1020700086958F739EE3980F9F73943018F4825067
:102080000C941F0F9AE3980F9F73933018F48650A7
:102090000C94540F97E3980F9F73963018F489505F
:1020A0000C94840F91E3980F9F73963018F48F501F
:1020B0000C94B10F9BE2980F9F73933018F48551E5
:1020C0000C94DF0F0C941510089590938101809368
:1020D00080010895E0918001F0918101309721F015
:1020E0000190F081E02D099480E00895E091800155
:1020F000F0918101309721F00280F381E02D099465
:102100000895E0918001F0918101309721F00480E1
:10211000F581E02D0994089520917E0130917F0191
:102120002817390771F090937F0180937E01E09129
:102130008001F0918101309721F00680F781E02D38
:102140000994089520917C0130917D012817390769
:1021500071F090937D0180937C01E0918001F0917A
:102160008101309721F00084F185E02D09940895D4
:1021700008950C94B8100E94341D0E94440B0E94D4
:10218000051E0E9436210C94BA0E5F926F927F92C8
:102190008F929F92AF92BF92CF92DF92EF92FF9277
:1021A0000F931F93CF93DF93CDB7DEB72A970FB668
:1021B000F894DEBF0FBECDBF0E94AF0B93E8A92EEF
:1021C00091E0B92E10E000E088248394912C502EE9
:1021D000802F0E94710C7C01F501C190D1905F01AC
:1021E000C816D90609F45EC08091200281FD0E94C4
:1021F0007A0C90E080E0CE24DF243401082E02C067
:10220000660C771C0A94E2F7960126213721232BCE
:1022100009F443C08E835F82E620F72081E0EF2837
:1022200009F480E088870E943D1D8160782F9A879D
:1022300089874E815F8168858A850E947F11000FA2
:10224000111FF801ED57FE4F808191816826792694
:10225000718260820E9488200E946A10909182019F
:102260008917B9F10E946A10809382012A960FB6ED
:10227000F894DEBF0FBECDBFDF91CF911F910F91BC
:10228000FF90EF90DF90CF90BF90AF909F908F9096
:102290007F906F905F900C94BE0801968E309105F0
:1022A00009F0ABCF0F5F1F4F0530110509F08FCF3D
:1022B0008FEF89838A831B820E943D1D8160782F66
:1022C0009D838C8349815A816B818D810E947F110E
:1022D000C1CF2A960FB6F894DEBF0FBECDBFDF91F7
:1022E000CF911F910F91FF90EF90DF90CF90BF9013
:1022F000AF909F908F907F906F905F900895CF9355
:10230000DF93CDB7DEB72B970FB6F894DEBF0FBEC5
:10231000CDBF4F83588769877A878B871E821D823E
:1023200085E0FE013796DE01119601900D928A95A7
:10233000E1F749815A816B817C818D819E812B9649
:102340000FB6F894DEBF0FBECDBFDF91CF910C94D6
:102350001C18882309F4D8C0823871F40E946A10CE
:1023600081FDD2C089E30E94711B0E94391C89E360
:102370000E94AE1B0C94391C833859F40E946A10D9
:1023800080FDC2C083E50E94711B0E94391C83E559
:10239000EFCF843859F40E946A1082FDB5C087E4FB
:1023A0000E94711B0E94391C87E4E2CF9CEF980FBA
:1023B000913A18F40E94711BDDCF90E2980F98308B
:1023C00050F4877091E001C0990F8A95EAF7892F40
:1023D0000E94F01BCFCF9BE5980F933070F4853AA5
:1023E00031F0863A39F083E890E00C948C1081E863
:1023F00090E0FBCF82E890E0F8CF98E5980F953118
:1024000008F082C0883A09F440C0893A09F440C013
:102410008A3A09F440C08B3A09F440C08C3A09F476
:1024200040C08B3B09F440C08C3B09F440C08D3A5E
:1024300009F440C0803B09F440C08E3A09F440C022
:102440008F3A09F440C0813B09F440C0823B09F453
:1024500040C0833B09F440C0843B09F440C0853B45
:1024600009F440C0863B09F440C0873B09F440C0F2
:10247000883B09F440C0893B09F440C08A3B09F419
:1024800040C090E080E00C94A21082EE90E0FBCF80
:1024900089EE90E0F8CF8AEE90E0F5CF85EB90E002
:1024A000F2CF86EB90E0EFCF83EB90E0ECCF84EBC4
:1024B00090E0E9CF87EB90E0E6CF8CEC90E0E3CFC3
:1024C0008DEC90E0E0CF83E891E0DDCF8AE891E009
:1024D000DACF82E991E0D7CF84E991E0D4CF81E2ED
:1024E00092E0D1CF83E292E0CECF84E292E0CBCFF4
:1024F00085E292E0C8CF86E292E0C5CF87E292E023
:10250000C2CF8AE292E0BFCF0895882309F44BC07E
:10251000823871F40E946A1081FF45C089E30E94ED
:10252000711B0E94391C89E30E94AE1B0C94391C5C
:10253000833859F40E946A1080FF35C083E50E94F9
:10254000711B0E94391C83E5EFCF843859F40E9437
:102550006A1082FF28C087E40E94711B0E94391C08
:1025600087E4E2CF9CEF980F913AF0F290E2980F57
:10257000983050F4877091E001C0990F8A95EAF77E
:10258000892F0E94F61BD2CF9BE5980F933020F441
:1025900090E080E00C948C10885A853120F490E013
:1025A00080E00C94A2100895882321F00E94F01B73
:1025B0000C94391C0895882321F00E94F61B0C947A
:1025C000391C08958F929F92AF92BF92DF92EF9243
:1025D000FF920F931F93CF93DF937C01D62FC72FCA
:1025E000FC01058102950F70128111110E940F1CD0
:1025F0000E946A1BD82E882371F0112321F180E2FA
:102600008D0F883000F182E00E94541B0E946A1BEB
:1026100091E0D82ED926EC2FE295EF70F0E0ED5E38
:10262000FC4E0C94FC292513251375137513B71351
:10263000D31352135213DE13521376147614E91483
:10264000F21452131215D12CE6CF0C2F0F70C07F4D
:1026500011F00295007F1123A9F0002359F080E2C8
:102660008D0F883010F0D11109C0802F0E94F01B0F
:102670000E94391C8D2F0E94A91114C0802F0E9426
:10268000011CF6CF8D2F0E948512002359F080E2A5
:102690008D0F883010F0D11124C0802F0E94F61BBE
:1026A0000E94391CDD2009F4C4C10E94471B80FD33
:1026B000C0C1F70112820E94411B0E94BB19C701D1
:1026C0000E9425150E94411BDF91CF911F910F9110
:1026D000FF90EF90DF90BF90AF909F908F900C9401
:1026E000DC19802F0E94071CDBCFFC2FFF70BF2E50
:1026F000C07FC03219F0B29480EFB822DD2369F0B8
:10270000D13029F1112369F1002359F0F7018581B6
:1027100080FFB0CF8F70858304C0112361F0011159
:1027200004C08B2D0E94D412BDCF8B2D0130D1F768
:102730000E94231CB7CF011106C00E94261C8B2DBE
:102740000E94DB12AFCF013009F4ACCFF6CF1123DA
:1027500021F0063008F0A6CFE4CF053008F0A2CF74
:10276000EECF002361F38D2F0E9485129BCF8C2F1B
:1027700086958695837069F0813009F093CF8D2F0F
:102780009C2F9370111102C090E080E00E94A21073
:1027900089CF8D2F9C2F9370111102C090E080E0A3
:1027A0000E948C107FCF8D2F112329F00E94911F42
:1027B0000E947D2077CF0E94F91FFACF8C2F837063
:1027C00009F047C011116ECF2D2F22952695277045
:1027D000220F220F6D2F6F70862E912CB12CA12C01
:1027E000022E04C0880C991CAA1CBB1C0A94D2F7A8
:1027F00060E070E0CB01D4FF0FC06FE070E080E0DC
:1028000090E004C0660F771F881F991F2A95D2F7A2
:102810006095709580959095C695C695C370C230A9
:1028200051F080F4682979298A299B29C13071F0F7
:102830000E94641937CF682979298A299B290E9427
:10284000801930CF0E946419C501B4010E94481953
:1028500029CF8695112311F08C2F8170882309F4DC
:1028600021CF2D2F229526952770220F220F6D2F15
:102870006F70862E912CB12CA12C022E04C0880CD6
:10288000991CAA1CBB1C0A94D2F760E070E0CB0133
:10289000D4FF0FC06FE070E080E090E004C0660FEE
:1028A000771F881F991F2A95D2F76095709580959C
:1028B0009095C695C695C370C23051F080F46829D2
:1028C00079298A299B29C13071F00E943E1AEACEEB
:1028D000682979298A299B290E945A1AE3CE0E94E5
:1028E0003E1AC501B4010E94221ADCCEE0E2ED0FCF
:1028F000E53108F062C0F0E0E058FB4E0C94FC2992
:10290000951495149514951495149514951495147F
:10291000951495149514951495149514951495146F
:10292000A214B014B714BE14C814DF708C2F8F71AA
:10293000112321F00E94BB198D2FF4CE0E94DC19C7
:102940008D2FFECE112341F0053008F0ABCE8C2F39
:102950008F710E94011AA6CE063008F0A3CEF7CFE1
:102960008C2F8F71112339F00E94BB199BCE8C2FB5
:102970008F711123C9F30E94DC1994CE112329F021
:102980008C2F8F710E94A6198DCE0E949C198ACE21
:10299000112349F0CF718C2F0E94BB1963E08C2F5B
:1029A0000E944B1B7FCE81E00E94541B023008F432
:1029B00079CE82E00E94541B75CE112329F00111BB
:1029C00059CE8C2F8F71D0CF0111CDCE8C2F8F711E
:1029D000D2CF4C2F4F706D2FC7010E94DB060E9493
:1029E000C51860CE11115ECECF70C230A9F040F490
:1029F000CC2379F0C13009F055CE0E94532152CE3C
:102A0000C33069F0C43009F04DCE8D2F0E949D2156
:102A100049CE0E94472146CE0E946C2143CE0E949F
:102A20007F2140CE4C2F4F706D2FC7010E94C008F0
:102A300039CEDF91CF911F910F91FF90EF90DF90F2
:102A4000BF90AF909F908F9008950F931F93CF9357
:102A5000DF93EC01988189812B813C81232B39F014
:102A60008F3F19F481E09F3F19F080E001C081E0C1
:102A700080FD17C0CE010E94FA06882391F068817C
:102A800079818A810E941D1B8C010E94761A0E9406
:102A90003D19B801CE01DF91CF911F910F910C9498
:102AA000E212DF91CF911F910F9108950E940F1CA8
:102AB0000E94201C0E94E21B0E94391C0E942A21B5
:102AC0000E947D2090E080E00E948C1090E080E0E9
:102AD0000C94A2100E94FE1B0C9456150E94131B0E
:102AE000E92FE295EF70E250EE30E0F4F0E0E558C7
:102AF000FA4E0C94FC298915891592159215941596
:102B00009215921592158915891599159215921598
:102B10009915803F19F020F4803E20F481E008955B
:102B2000843FE1F380E00895803EC0F3813FD1F718
:102B3000F5CF93FB882780F90895CF93DF9300D0DA
:102B400000D01F92CDB7DEB70F900F900F900F906F
:102B50000F90DF91CF910895CF93DF9300D000D0F5
:102B600000D0CDB7DEB726960FB6F894DEBF0FBE05
:102B7000CDBFDF91CF9108951F93CF93DF93C09185
:102B80008E0116E080918F018C1304C0DF91CF91EC
:102B90001F910895D0E01C9FF0011D9FF00D11249E
:102BA000E057FE4F4081518162817381848195811C
:102BB0000E94AC152196C770E5CF4091C00150919D
:102BC000C1016091C2017091C3018091C4019091D3
:102BD000C5010C94AC151F93CF93DF938091C50171
:102BE000807FD1F48091C2018823B1F080918E0161
:102BF000D0918F01B091C001C091C1014091C3013A
:102C00005091C401A1E0BF3F09F0A0E0BA01609576
:102C1000709516E0D81304C0DF91CF911F910895ED
:102C200021E04115510521F02A2FCF3F09F020E086
:102C300090E020FD38C0189FF001199FF00D11247D
:102C4000E057FE4F21812C132EC020812B132BC067
:102C50002281211128C0238134812417350700F1F6
:102C6000241B350B283C3105F0F42091C5012F7051
:102C700020612093C50126E0289FF001299FF00DD7
:102C80001124EB56FE4F80818F708061808380EC31
:102C900091E00E942515DF91CF911F910C94BC15F6
:102CA000260F371FDFCF01968770B4CFAF92BF9248
:102CB000CF92DF92EF92FF920F931F93CF93DF9308
:102CC000CDB7DEB761970FB6F894DEBF0FBECDBFAC
:102CD0008C0185E0F801DE011D9601900D928A9528
:102CE000E1F7D8014C9111965C9111971296EC90F6
:102CF0003091C0016091C1018091C3019091C401E4
:102D000021E0009731F06F3F19F421E03F3F09F0D7
:102D100020E0B22FB170BB2E20FD80C1F801C3802E
:102D2000D480A090C201AA2009F427C1C816D906F0
:102D3000D0F1D601A81BB90BCD01FF24F394883C38
:102D4000910508F0F12C8091C501982F907FFF200C
:102D500009F4CAC0911187C0FE2C651329C0341331
:102D600027C0E11025C08F7080618093C5010E944B
:102D7000DD1580EC91E00E9425158091C501F801D8
:102D800085838F2D61960FB6F894DEBF0FBECDBF41
:102D9000DF91CF911F910F91FF90EF90DF90CF9037
:102DA000BF90AF900895809590958C0D9D1DC5CFD7
:102DB00081E0CD2831F05F3F19F481E04F3F09F009
:102DC00080E080FD24C081E08E25F82FF170DF2E99
:102DD00080FF3FC080918E0120918F0136E08213E9
:102DE00018C04D875E878D859E850E94131B292FF5
:102DF00022952F70223008F1243030F59F7009F1B0
:102E0000D80115969C91907FE1F4FB2CBACF80E01D
:102E1000DCCF90E0389FF001399FF00D1124E0578E
:102E2000FE4F6181561306C06081461303C0628164
:102E30006E110FC001968770D2CF9F7011F088235A
:102E400021F3805E883008F3C8010E942515BD2C4F
:102E5000DCCFEE2009F495CF8091C501816080938D
:102E6000C501F12C8ECF651312C0341310C0E110D0
:102E70000EC0F8018583C8010E94251586E0F8017F
:102E8000A0ECB1E001900D928A95E1F741C04D8729
:102E90005E878D859E850E946E15882309F4C8C0C3
:102EA000EE2009F4C5C08091C501803270F02091F8
:102EB000C0013091C10138872F831986DB86CA860D
:102EC0008C87CE0107960E94251586E0F801A0ECBC
:102ED000B1E001900D928A95E1F70E94EB150E94F6
:102EE000DD15FF24F3944DCF911115C07C2DD98AA7
:102EF000C88A6E2D89890E949D1580EC91E00E9400
:102F0000251586E0E0ECF1E0DF011D928A95E9F7F6
:102F10000E94DD1536CF651312C0341310C0E110C6
:102F20000EC0F8018583C8010E942515E0ECF1E090
:102F300086E0DF011D928A95E9F7FA2C22CF4D87B2
:102F40005E878D859E850E946E15882309F470C06A
:102F5000EE2009F46DC08091C501803208F4B5CF30
:102F60002091C0013091C1013A8329831B82DD8207
:102F7000CC828E83CE010196A6CFC816D90638F131
:102F8000F601E81BF90BCF01F12C883C910508F004
:102F90003DC0FE2CEE2009F44BC0651326C034134F
:102FA00024C08091C50180FD17C0982F907FA1F0AB
:102FB000D80115968C931597903F09F45CCF982F04
:102FC000907F905F8F70892B15968C9354CF80954E
:102FD00090958C0D9D1DD8CF86E0F801A0ECB1E056
:102FE00001900D928A95E1F7CCCE4D875E878D8555
:102FF0009E850E946E15811168CF8091C501816008
:103000008093C501C8010E942515BBCE7C2DD98AAD
:10301000C88A6E2D89890E949D1573CFEE2041F0DC
:103020004D875E878D859E850E946E1581114DCFDF
:10303000C8010E94251555CF1F93CF93DF93CDB7BD
:10304000DEB72C970FB6F894DEBF0FBECDBF4F830F
:10305000588769877A878B879C87CE0107960E945D
:103060005616882309F442C09F8188852A853B85AE
:10307000232B39F08F3F19F481E09F3F19F080E056
:1030800001C081E080FD08C04F81588569857A853F
:103090008B859C850E94AC1516E080918E019091E5
:1030A0008F01891709F467C0819FC00111248057DF
:1030B0009E4F0E945616882309F45DC0E0918E0150
:1030C0001E9FF0011124E057FE4F40815181628123
:1030D0007381848195810E94AC1580918E0190E06E
:1030E00001968770992780938E01D7CF86E0FE01E5
:1030F0003796DE01119601900D928A95E1F79F8136
:1031000088852A853B85232B39F08F3F19F481E090
:103110009F3F19F080E001C081E080FDBDCF20918C
:103120008F0130E0C90101968770992740918E0187
:103130004817190699F096E0929FD001939FB00D21
:103140001124A057BE4FFE01319601900D929A9521
:10315000E1F780938F010E94BC159ECF0E946A15F3
:1031600010928F0110928E0186E0E0ECF1E0DF0119
:103170001D928A95E9F72C960FB6F894DEBF0FBE24
:10318000CDBFDF91CF911F910895EF92FF920F93E2
:103190001F93CF93DF938C01892B81F0F12CEE24C8
:1031A000E394E8012196F8018491843770F4843027
:1031B00008F05FC08130B1F08230A1F1DF91CF9192
:1031C0001F910F91FF90EF900895853709F44CC03F
:1031D00008F43DC09CE7980F903780F78F770E94E6
:1031E000851249C00E5F1F4FFE01849190E2980F37
:1031F000983060F48770FE2D01C0FF0F8A95EAF7C2
:103200008F2F0E94121C0E94391C02C00E94A9111B
:103210008F2D815030F2EFE9FFE03197F1F700C0D8
:103220000000F7CF0E5F1F4FFE01849190E2980FD0
:10323000983050F48770FE2D01C0FF0F8A95EAF791
:103240008F2F0E94181CDFCF0E948512E1CF0E5FE6
:103250001F4FFE01C491C150D8F28FE99FE0019742
:10326000F1F700C00000F7CF0E5F1F4FFE01F49092
:10327000CFCF0E94A9118E01CBCF08956093F701A3
:103280007093F8018093F9019093FA010C9456150C
:103290000F931F930091F7011091F8012091F9010C
:1032A0003091FA01DC01CB01802B912BA22BB32BA7
:1032B0008093F7019093F801A093F901B093FA017C
:1032C0001F910F910C9456150F931F930091F701C6
:1032D0001091F8012091F9013091FA01DC01CB0144
:1032E00080239123A223B3238093F7019093F801C5
:1032F000A093F901B093FA011F910F910C94561508
:103300000F931F930091F7011091F8012091F9019B
:103310003091FA01DC01CB0180279127A227B32746
:103320008093F7019093F801A093F901B093FA010B
:103330001F910F910C9456151092F3011092F40105
:103340001092F5011092F6010C94561541E050E0F0
:1033500060E070E004C0440F551F661F771F8A9518
:10336000D2F74093F3015093F4016093F501709309
:10337000F6010C94561541E050E060E070E004C0A6
:10338000440F551F661F771F8A95D2F78091F3016E
:103390009091F401A091F501B091F601842B952B49
:1033A000A62BB72B8093F3019093F401A093F50122
:1033B000B093F6010C94561541E050E060E070E0E7
:1033C00004C0440F551F661F771F8A95D2F740959A
:1033D0005095609570958091F3019091F401A091C2
:1033E000F501B091F60184239523A623B72380939A
:1033F000F3019093F401A093F501B093F6010C94BE
:10340000561541E050E060E070E004C0440F551FE5
:10341000661F771F8A95D2F78091F3019091F4018E
:10342000A091F501B091F60184279527A627B7272B
:103430008093F3019093F401A093F501B093F6010A
:103440000C9456150F931F930091F3011091F40102
:103450002091F5013091F601DC01CB01802B912BFD
:10346000A22BB32B8093F3019093F401A093F50169
:10347000B093F6011F910F910C9456150F931F9363
:103480000091F3011091F4012091F5013091F601C2
:10349000DC01CB0180239123A223B3238093F3018A
:1034A0009093F401A093F501B093F6011F910F9151
:1034B0000C9456150F931F930091F3011091F40192
:1034C0002091F5013091F601DC01CB018027912795
:1034D000A227B3278093F3019093F401A093F50101
:1034E000B093F6011F910F910C94561508952EE09C
:1034F000929F800D1124982F977071E001C0770F73
:103500009A95EAF786958695869525E0829FC00173
:10351000112450E040E0A62FB0E0FC01E40FF51FBD
:10352000EA53FE4F60819D01042E02C03695279517
:103530000A94E2F721702195262727232627208346
:103540004F5F5F4F4530510541F708952EE0929F40
:10355000800D1124982F977086958695869525E085
:10356000829FA001112470E060E080E0FA01E60F84
:10357000F71FEA53FE4F208130E0092E02C0369536
:1035800027950A94E2F721703327062E01C0220FF7
:103590000A94EAF7822B6F5F7F4F6530710531F730
:1035A0000895BF92CF92DF92EF92FF920F931F93F5
:1035B000CF93DF938C01C090F301D090F401E090A1
:1035C000F501F090F6018091F7019091F801A0913A
:1035D000F901B091FA01C82AD92AEA2AFB2ACFE1D7
:1035E000D0E0BC2ED701C6010C2E04C0B695A7951D
:1035F000979587950A94D2F780FD0EC0219788F79A
:10360000B12C8B2DDF91CF911F910F91FF90EF90F7
:10361000DF90CF90BF900895B8018C2F0E94DD08F5
:10362000019761F3EECFCF93DF93EC010E94D11AA3
:10363000BE01DF91CF910C94DD081F93CF93DF93F0
:10364000EB0190918D01992331F0CB01DF91CF9166
:103650001F910C94131B882379F0CB010E94D11A7F
:10366000182F682FCE010E94771ABE01812FDF919B
:10367000CF911F910C94DD08CB010E94A61A182F40
:10368000F4CF8091FB01859585958595089580916E
:10369000FB018770089598E0899F90011124622BA7
:1036A0006093FB010C94BB199091FB0180958923D9
:1036B0008093FB01282F277061F4282F082E000C1F
:1036C000330B9217130629F08595859585950C94F3
:1036D000DC1908959091FB01977081E009F480E076
:1036E0000895909113019923E1F09091590297FF69
:1036F00018C0E82FE695E695E695EF3139F120916F
:10370000010130910201E20FF32FF11D877021E0DA
:1037100030E001C0220F8A95EAF78181822B8183F4
:1037200008952091010130910201F90132969FEF35
:1037300040E05191851751F09F3F19F4511101C09C
:10374000942F4F5F4E31A9F79F3F09F40895290F39
:10375000311D97FD3A95F9018283089590911301E7
:103760009923F1F09091590297FF1AC0E82FE6953E
:10377000E695E695EF3129F12091010130910201A2
:10378000E20FF32FF11D282F277081E090E001C098
:10379000880F2A95EAF7809591818923818308957E
:1037A0002091010130910201F9013296205E3F4FD4
:1037B0009191891303C0DF0111971C92E217F3075F
:1037C000B9F7089581E090E0E0910101F0910201E4
:1037D000E80FF91F1082019680329105A9F708952C
:1037E00090911F02892B80931F020895982F909526
:1037F00080911F02892380931F02089510921F0257
:10380000089590911E02892B80931E020895982F8F
:10381000909580911E02892380931E020895109234
:103820001E02089590911D02892B80931D02089518
:10383000982F909580911D02892380931D020895F1
:1038400010921D0208958093FC0108951092FC01CE
:1038500008952091010130910201F9013196205E15
:103860003F4F80E0919191118F5FE217F307D1F7FD
:103870000895E0910101F091020180911F0280837F
:10388000E0910101F0910201808190911E02892B4B
:103890008083E0910101F0910201808190911D02ED
:1038A000892B80839091FC01992361F0E0910101C3
:1038B000F09102018081892B80830E94291C811153
:1038C0001092FC0180910101909102010C947610FC
:1038D0006DEE7EEF90E080E00E94392A60E082E0A9
:1038E00090E00E941B2A60E083E090E00E941B2A87
:1038F00060E084E090E00E941B2A60E085E090E0B8
:103900000E941B2A60E086E090E00E941B2A40E0B3
:1039100050E0BA0188E090E00C942D2A90E080E01D
:103920000E94152A21E08D3E9E4F09F020E0822F53
:10393000089582E090E00C94072A682F82E090E0DE
:103940000C941B2A83E090E00C94072A682F83E0F4
:1039500090E00C941B2A84E090E00C94072A682FD6
:1039600084E090E00C941B2A86E090E00C94072AF7
:10397000682F86E090E00C941B2A809160028430CE
:1039800051F11092210288E190E020E40FB6F89402
:10399000A895809360000FBE2093600080E00E9495
:1039A000A30880E00E94BE0883B7817F846083BF44
:1039B00083B7816083BF7894889583B78E7F83BFF8
:1039C0000FB6F894A895809160008861809360009C
:1039D000109260000FBE089508950895CF930E943D
:1039E000EC1C0E94AF0B0E94ED1CC0E08C2F0E94CB
:1039F000710C892B31F4CF5FC530C1F780E0CF91D6
:103A0000089581E0FCCF0E946A150E9436210E9431
:103A10006A100C94BE081F920F920FB60F921124D9
:103A20008F939F93AF93BF9380912102811113C015
:103A30008091550290915602A0915702B091580280
:103A40004196A11DB11D8093550290935602A093FB
:103A50005702B0935802BF91AF919F918F910F90F1
:103A60000FBE0F901F90189582E084BD93E095BD26
:103A70009AEF97BD80936E0008952FB7F8948091C8
:103A8000550290915602A0915702B09158022FBF53
:103A90000895CF92DF92EF92FF920F931F932FB76B
:103AA000F8944091550250915602609157027091DE
:103AB00058022FBF6A017B01EE24FF248C0130E005
:103AC00020E0C016D106E206F30650F0481B590B61
:103AD000CA011F910F91FF90EF90DF90CF90089552
:103AE00041505109F3CF1F920F920FB60F9211243C
:103AF0008F939F93AF93BF938091550290915602FD
:103B0000A0915702B09158020196A11DB11D80935A
:103B1000550290935602A0935702B0935802BF915A
:103B2000AF919F918F910F900FBE0F901F9018959E
:103B30000E94A825F8942FEF87EA91E62150804053
:103B40009040E1F700C0000087E090EBDC0180933B
:103B5000690290936A02A0936B02B0936C0288E1B1
:103B60009CE00FB6F894A895809360000FBE9093E8
:103B70006000FFCFAF92BF92CF92DF92EF92FF92A1
:103B80000F931F93CF93C0E0CC24C394D12CE82E85
:103B9000F12C8C2F0E94710C5C0110E000E0C6013A
:103BA000002E02C0880F991F0A94E2F78A219B21F8
:103BB000892B99F40F5F1F4F0E30110581F7CF5FEE
:103BC000C53039F780E0CF911F910F91FF90EF90B2
:103BD000DF90CF90BF90AF900895602F7C2F80E052
:103BE0000E94C108E816F90629F781E0ECCFCF93CF
:103BF000C82F8CE20E94BA1D882321F08C2FCF9110
:103C00000C94BA1D80E0CF910895CF930E948E1C32
:103C1000811102C00E94681CC5E608C00E94AF0B5B
:103C20008FE39CE90197F1F700C00000C150B1F7A4
:103C300089E20E94F71D8111EFC08AE20E94F71D00
:103C400081110E94681C85E00E94F71D81110E946D
:103C5000981D0E94991C8093200287E00E94F71D06
:103C6000882371F08BE10E94F71D882309F4B1C00D
:103C700090912002892F8D7F91FF82608093200296
:103C8000809120020E949D1C0E94AB1C90E09093AA
:103C90005A028093590280EE0E94F71D882341F05A
:103CA00090915902892F8E7F90FF816080935902F5
:103CB00089E30E94F71D882341F090915902892FD2
:103CC0008D7F91FF82608093590282EE0E94F71DE2
:103CD000882341F090915902892F8B7F92FF846055
:103CE0008093590286EE0E94F71D882341F090913F
:103CF0005902892F877F93FF88608093590283EE52
:103D00000E94F71D882341F090915902892F8F7EE0
:103D100094FF80618093590285E30E94F71D8823F8
:103D200041F090915902892F8F7D95FF8062809399
:103D3000590281E30E94F71D882341F090915902B6
:103D4000892F8F7B96FF80648093590281E10E94C6
:103D5000F71D882341F090915902892F97FB87F92D
:103D6000805880935902809159020E94AF1C87E2CB
:103D70000E94F71DC82F8EE10E94F71D8111C260BD
:103D80008FE10E94F71D8111C46080E20E94F71D3F
:103D90008111C86081E20E94F71D8111C06182E239
:103DA0000E94F71D8111C06283E20E94F71D8111FC
:103DB000C06484E20E94F71D882341F1C0688C2F03
:103DC0000E94A61C6C2F70E090E080E0CF910C94D4
:103DD0003E198EE00E94F71D882339F09091200251
:103DE000892F8B7F92FF846049CF80E10E94F71D6D
:103DF00090912002882329F0892F877F93FF886084
:103E00003DCF892F8E7F90FF816038CFC111D7CFF2
:103E10000E94A21C682FD7CFCF91089580912402D1
:103E200080FF12C06091060185E0689FB0011124F7
:103E3000759567957595679560387105A8F5611555
:103E40007105A1F1862F089581FF09C060910601D7
:103E500085E0689FB001112475956795EDCF82FFCD
:103E600007C06091060185E0689FB0011124E4CF8E
:103E7000209125022223A9F090910501609106016D
:103E800085E0689FB00111242917B0F6269FA00194
:103E9000279F500D1124692F70E0CA010E94E82964
:103EA000CBCF65E070E0CECF8FE7089581E0089535
:103EB0008091240280FF0CC06091040170E0759530
:103EC0006795759567956115710549F1862F089578
:103ED00081FF06C06091040170E075956795F3CF8E
:103EE0006091040182FD0BC0909125029923A1F0FD
:103EF0006091030180910401961738F0682F70E0FB
:103F00006038710500F38FE70895899FC00111247F
:103F100070E00E94E829F4CF61E070E0D7CF81E043
:103F20000895803F31F40E940E1F819580932802EE
:103F30000895813F19F40E940E1FF8CF823F31F49B
:103F40000E940E1F8195809327020895833F19F4E4
:103F50000E940E1FF8CF893F29F40E94581F8093BA
:103F6000290208958A3F21F40E94581F8195F7CFB6
:103F70008B3F31F40E94581F819580932A02089547
:103F80008C3F19F40E94581FF8CF843F31F4809180
:103F900026028160809326020895853F21F4809156
:103FA00026028260F7CF863F21F48091260284604A
:103FB000F1CF873F21F4809126028860EBCF883FC4
:103FC00021F4809126028061E5CF8D3F31F480910C
:103FD000240281608093240208958E3F21F4809111
:103FE00024028260F7CF8F3FB9F78091240284606A
:103FF000F1CF803FC1F48091280287FD1092280202
:104000008091270281110EC08091280281110AC07F
:1040100080912902811106C080912A02811102C07B
:10402000109225020895813F29F4809128021816E4
:104030002CF3E6CF90912702823F29F497FFE0CF3F
:1040400010922702DDCF833F19F41916CCF3D8CF95
:10405000893F39F480912902181694F610922902AA
:10406000CFCF8A3F29F48091290287FFC9CFF6CFAD
:104070008B3F39F480912A0287FFC2CF10922A0227
:10408000BFCF8C3F29F480912A021816BCF3B8CF19
:10409000843F31F4809126028E7F80932602B0CF38
:1040A000853F21F4809126028D7FF7CF863F21F452
:1040B000809126028B7FF1CF873F21F480912602E9
:1040C000877FEBCF883F21F4809126028F7EE5CF5A
:1040D0008D3F31F4809124028E7F8093240290CF13
:1040E0008E3F21F4809124028D7FF7CF8F3F09F01E
:1040F00087CF809124028B7FF0CF86E292E00E94EE
:1041000081100E943D1D9093230280932202089506
:104110001F93CF93DF9380912202909123020E94FC
:10412000491DAC01909125022091070130E09111C9
:1041300006C0209108018AE0289F900111244217AF
:10414000530780F080912702C09128021091290224
:10415000D0912A0281110AC0C11178C0111176C014
:10416000D11174C0DF91CF911F9108959F3F19F035
:104170009F5F90932502181624F40E940E1F8093CF
:1041800027028091270287FF05C00E940E1F81959C
:10419000809327021C1624F40E940E1F809328028D
:1041A0008091280287FF05C00E940E1F8195809391
:1041B000280260912702662331F1C0912802CC23A6
:1041C00011F1062E000C770B880B990B0E94DB284F
:1041D00023E333E343E35FE30E943F290E94A328E4
:1041E000609327026C2FCC0F770B880B990B0E94E2
:1041F000DB2823E333E343E35FE30E943F290E948C
:10420000A32860932802111624F40E94581F80935B
:1042100029028091290287FF05C00E94581F8195BD
:10422000809329021D1624F40E94581F80932A02AD
:1042300080912A0287FF05C00E94581F81958093B4
:104240002A02DF91CF911F910C947D209F3F09F0AE
:104250008FCFA0CF85E0E6E2F2E0DF011D928A95E4
:10426000E9F7109225021092240208950E948E1CF4
:10427000811102C00E94681C0E94B41C80935B02E2
:1042800080FF03C086950C94A30880E0FCCF80914A
:104290005B02816080935B020E94B81C80915B028C
:1042A00086950C94A30880915B02982F9E7F79F0ED
:1042B000825080935B028E7F91E009F490E08091C0
:1042C0005B0290FB80F980935B020E94B81C809196
:1042D0005B0286950C94A30890915B02892F8E7FD8
:1042E00090FF816080935B020E94B81C80915B020A
:1042F00080FF03C086950C94A30880E0FCCF8091DA
:104300005B028E5F80935B02982F9E7F19F0817015
:1043100080935B0280915B028E7F91E009F490E0D4
:1043200080915B0290FB80F980935B020E94B81C35
:1043300080915B0286950C94A30890915B02292FD3
:1043400026958227880F9170982B90935B029E7F11
:1043500021E009F420E080915B0220FB80F980934A
:104360005B020E94B81C80915B0286950C94A308A6
:1043700080914B020895CF93DF9300D01F92CDB769
:10438000DEB79C0180916002843019F593E0998337
:104390003B832A839093E9008FEF9091E80081504E
:1043A00095FD06C095ED9A95F1F700008111F5CFC6
:1043B0008091E80085FF0DC050E040E063E070E0D0
:1043C000CE0101960E9418248091E8008E77809398
:1043D000E8000F900F900F90DF91CF910895CF9349
:1043E000DF9300D01F92CDB7DEB72091600224305A
:1043F00031F522E02983805891099B838A8383E0E9
:104400008093E9008FEF9091E800815095FD06C000
:1044100095ED9A95F1F700008111F5CF8091E800B4
:1044200085FF0DC050E040E063E070E0CE010196F2
:104430000E9418248091E8008E778093E8000F9006
:104440000F900F90DF91CF9108959C0180916002B1
:104450008430F9F482E08093E9009FEF8091E800D6
:10446000915085FD06C085ED8A95F1F70000911108
:10447000F5CF8091E80085FF0CC050E040E065E09A
:1044800070E0C9010E9418248091E8008E77809323
:10449000E8000895CF93DF93EC01809160028430AF
:1044A000F1F4909113019923E9F09091590297FF4B
:1044B00019C08093E9008FEF9091E800815095FD3D
:1044C00006C095E19A95F1F700008111F5CF809132
:1044D000E80050E040E060E270E085FD1AC0DF9146
:1044E000CF91089581E08093E9008FEF9091E800EB
:1044F000815095FD06C095ED9A95F1F70000811168
:10450000F5CF8091E80085FFEACF50E040E068E019
:1045100070E0CE010E9418248091E8008E7780938D
:10452000E80080E2FE01ABE2B2E001900D928A95D4
:10453000E1F7D5CF80915F02811109C00E94A825C3
:104540000E9405268091E20084608093E200089535
:1045500010925F020895089508950C94031D42E09F
:1045600061EC81E00E94262542E061EC82E00E943D
:10457000262542E061EC83E00E94262542E261ECC0
:1045800084E00C94262580916202833009F455C0A2
:1045900030F4813071F1823009F491C008958A308D
:1045A00009F47DC08B3009F463C0893009F044C040
:1045B00080916102813209F03FC080916502909143
:1045C0006602009711F00397B9F58091E800877FA4
:1045D0008093E8008091E80082FF2AC08091F1007A
:1045E00080934B028091E8008B778093E8000C94D5
:1045F0005A2580916102813AF9F48091E800877F21
:104600008093E8008091650290916602892B61F4A5
:1046100060E28BE292E070E00E9467248091E80003
:104620008B778093E800089560E090E080E0F3CF1E
:10463000809160028111CECF089580916102813A0C
:10464000D9F78091650290916602892BA9F7809134
:10465000E800877F8093E8008091E80080FFFCCF2E
:10466000809113018093F1008091E8008E77BDCF97
:1046700080916102813201F780916502909166021A
:10468000892BD1F68091E800877F8093E8000E9413
:104690005A2580916302809313010C946A158091CE
:1046A0006102813249F68091E800877F8093E800BB
:1046B0000E945A258091640280934C020895809153
:1046C0006102813A09F0B8CF8091E800877F80933A
:1046D000E8008091E80080FFFCCF80914C02C2CFBF
:1046E00084B7877F84BF0FB6F894A8958091600047
:1046F000886180936000109260000FBE80E8809314
:104700006100109261000E94B9100E94A8250E94C9
:1047100005268091E20084608093E20078940E94F4
:1047200087280E94BB1089E091E00E94651080916B
:104730006002853029F00E94C5100E943210F7CF28
:104740000E94BD1C80915E02882389F30E94EE1CAA
:10475000882369F30E940224EACF292F33272330CC
:10476000310579F158F421303105F1F0223031056D
:1047700019F190E080E030E020E01AC021323105EC
:1047800099F122323105A9F7643098F770E0FB0106
:10479000EE0FFF1FE55DFE4F20813181695D7E4F89
:1047A000FB01808190E004C082E190E026E13CE0E2
:1047B000FA013183208308958DE690E029EA3BE0F9
:1047C000F7CF99278130910561F028F0029789F69B
:1047D000E9E7FBE002C0E5EAFBE0849190E09F019D
:1047E000E7CFEDE8FBE0F9CF643008F0C2CFE62F69
:1047F000F0E0EE0FFF1FED5CFE4F2081318189E07C
:1048000090E0D6CF80E189BD82E189BD09B400FE88
:10481000FDCF8091D8008F7D8093D8008091E000FB
:1048200082608093E0008091E00081FDFCCF0895DC
:10483000AF92BF92CF92DF92FF920F931F93CF93CD
:10484000DF936C01EB018A010E947925F82E81111A
:1048500023C00115110539F0F80180819181C81B31
:10486000D90BC80ED91EB12CA12C2097A9F080918C
:10487000E80085FD22C08091E8008E778093E800F3
:1048800001151105A1F0F80180819181A80EB91ED2
:10489000B182A08285E0F82E8F2DDF91CF911F91FC
:1048A0000F91FF90DF90CF90BF90AF9008950E943E
:1048B00079258823D1F2F82EEFCFF60181916F018F
:1048C0008093F1002197FFEFAF1ABF0ACECFFC0112
:1048D000809167029091680286179707A0F0611592
:1048E000710529F49091E8009E779093E80090E09C
:1048F0006115710551F4911108C08091E80082FFA3
:1049000035C080E00895BC01F2CF80916002882319
:10491000C9F18530C9F18091E80083FD31C08091F3
:10492000E80082FDEACF8091E80080FFE1CF20918E
:10493000F3008091F200322F282F6115710519F0D4
:104940002830310558F091E02830310509F090E029
:104950002091E8002E772093E800CACF81918093C0
:10496000F100615071092F5F3F4FE7CF80916002E6
:10497000882341F0853041F08091E80083FFBDCF6E
:1049800081E0089582E0089583E00895FC0180911C
:1049900067029091680286179707A0F0611571056C
:1049A00029F48091E8008E778093E80090E061150B
:1049B000710551F4911108C08091E80082FF36C062
:1049C00080E00895BC01F2CF809160028823D1F18C
:1049D0008530D1F18091E80083FD32C08091E800FC
:1049E00082FDEACF8091E80080FFE1CF2091F300C3
:1049F0008091F200322F282F6115710519F02830AF
:104A0000310558F091E02830310509F090E08091AF
:104A1000E8008E778093E800CACF84918093F100FC
:104A20003196615071092F5F3F4FE6CF8091600250
:104A3000882341F0853041F08091E80083FFBCCFAE
:104A400081E0089582E0089583E00895982F9730DB
:104A500028F08F708093E90081E008959093E90039
:104A6000242F762F50E0981731F07091EC002091B0
:104A7000ED005091F00021FD02C09F5FE8CF309122
:104A8000EB003E7F3093EB003091ED003D7F3093A3
:104A9000ED003091EB0031603093EB007093EC004F
:104AA0002093ED005093F0002091EE0027FDE5CF1C
:104AB00080E008958091610287FF13C08091E80033
:104AC00082FF06C08091E8008B778093E80004C0E5
:104AD000809160028111F2CF089580916002882355
:104AE000D9F38091E80080FFF8CF8091E8008E77BD
:104AF000ECCF2091E4003091E50085E69091EC0048
:104B000090FF06C09091E80090FF06C080E00895F5
:104B10009091E80092FDFACF90916002992391F074
:104B2000953091F09091EB0095FD10C04091E4001C
:104B30005091E5002417350709F381509A01F1F6E9
:104B400084E0089582E0089583E0089581E0089567
:104B50000E9416260E941E26E0EEF0E08081816011
:104B60008083E8EDF0E080818F77808319BCA7ED2A
:104B7000B0E08C918E7F8C9380818F7E80831092A9
:104B80005F0208950F931F93CF93DF930E94162621
:104B90000E941E26C8EDD0E088818F7788838881A7
:104BA0008068888388818F7D888319BC1092600219
:104BB00010925C0210925E0210925D0200EE10E014
:104BC000F80180818B7F808388818160888342E0C7
:104BD00060E080E00E942625E1EEF0E080818E7F9B
:104BE0008083E2EEF0E08081816080838081886054
:104BF0008083F80180818E7F8083888180618883B3
:104C0000DF91CF911F910F910895E8EDF0E0808141
:104C10008F7E8083E7EDF0E080818160808384E097
:104C200082BF81E080935F020C94C225E8EDF0E042
:104C300080818E7F80831092E20008951092DA00C6
:104C40001092E10008951F920F920FB60F92112457
:104C50002F933F934F935F936F937F938F939F9384
:104C6000AF93BF93EF93FF938091E10082FF0BC05E
:104C70008091E20082FF07C08091E1008B7F8093EA
:104C8000E1000E9486288091DA0080FF19C080919F
:104C9000D80080FF15C08091DA008E7F8093DA0003
:104CA0008091D90080FF94C080E189BD82E189BDF7
:104CB00009B400FEFDCF81E0809360020E949A2239
:104CC0008091E10080FF19C08091E20080FF15C053
:104CD0008091E2008E7F8093E2008091E20080610B
:104CE0008093E2008091D80080628093D80019BC44
:104CF00085E0809360020E94AC228091E10084FFF5
:104D000029C08091E20084FF25C080E189BD82E155
:104D100089BD09B400FEFDCF8091D8008F7D8093BE
:104D2000D8008091E1008F7E8093E1008091E200C5
:104D30008F7E8093E2008091E20081608093E200A8
:104D400080915C02882309F449C084E0809360026A
:104D50000E94AD228091E10083FF29C08091E20092
:104D600083FF25C08091E100877F8093E10082E08E
:104D70008093600210925C028091E1008E7F8093AC
:104D8000E1008091E2008E7F8093E2008091E2005A
:104D900080618093E20042E060E080E00E9426258E
:104DA0008091F00088608093F0000E94AB22FF9118
:104DB000EF91BF91AF919F918F917F916F915F9193
:104DC0004F913F912F910F900FBE0F901F9018950C
:104DD00019BC109260020E94A82272CF8091E30059
:104DE00087FD02C081E0B2CF83E0B0CF1F920F9267
:104DF0000FB60F9211242F933F934F935F936F93AE
:104E00007F938F939F93AF93BF93CF93EF93FF9332
:104E1000C091E900CF708091EC001092E900809180
:104E2000F000877F8093F00078940E9432271092E0
:104E3000E9008091F00088608093F000C093E90061
:104E4000FF91EF91CF91BF91AF919F918F917F9102
:104E50006F915F914F913F912F910F900FBE0F90E7
:104E60001F9018951F93CF93DF93CDB7DEB7AA9706
:104E70000FB6F894DEBF0FBECDBFE1E6F2E0809141
:104E8000F100819322E0E936F207C9F70E94C322BC
:104E90008091E80083FF42C080916102909162029C
:104EA0009A3008F03BC0E92FF0E0E75AF84D0C9437
:104EB000FC29632787278E2787278E27E227042848
:104EC0008E2759286628803879F0823839F5809104
:104ED00065028F708093E9008091EB0085FB882745
:104EE00080F91092E90006C080915D0290915E0207
:104EF000911182609091E800977F9093E8008093F1
:104F0000F1001092F1008091E8008E772DC0282FDB
:104F10002D7F21F48823D1F0823059F18091E8006F
:104F200083FF0AC08091E800877F8093E80080912A
:104F3000EB0080628093EB00AA960FB6F894DEBF78
:104F40000FBECDBFDF91CF911F9108958091630275
:104F5000813021F7933009F080E080935E02109257
:104F6000E9008091E800877F8093E8000E945A253D
:104F7000D5CF809163028111F2CF809165028F704D
:104F800069F28093E9002091EB0020FFE8CF933095
:104F900031F48091EB0080628093EB00E0CF909140
:104FA000EB0090619093EB0021E030E001C0220F14
:104FB0008A95EAF72093EA001092EA008091EB00CC
:104FC0008860EACF8111AACF109163021F77809188
:104FD000E3008078812B8093E3008091E800877F55
:104FE0008093E8000E945A258091E80080FFFCCF62
:104FF0008091E30080688093E30083E0111101C099
:1050000082E0809360028ACF8058823008F086CF99
:1050100080916302909164028C3D23E09207A1F598
:1050200083E08A838AE289834FB7F894DE0113967E
:1050300020E03EE051E2E32FF0E050935700E4918E
:1050400020FF03C0E295EF703F5FEF708E2F90E07E
:10505000EA30C0F0C7968D939D932F5F243159F7A6
:105060004FBF8091E800877F8093E8006AE270E09C
:10507000CE0101960E9467248091E8008B7780938F
:10508000E8004CCFC096E7CFAE014F5F5F4F609115
:1050900065020E94AD23BC01892B09F43FCF90919A
:1050A000E800977F9093E80089819A810E94C62446
:1050B000E3CF803809F032CF8091E800877F80937A
:1050C000E80080915C028093F1001DCF811126CF12
:1050D00090916302923008F021CF8091E800877FA1
:1050E0008093E80090935C020E945A2580915C02B4
:1050F000882331F084E0809360020E94AF220ECFBB
:105100008091E30087FDF6CF81E0F5CF0895CF933E
:1051100080916002882399F0C091E900CF7080915E
:10512000EC0080FD0EC080E0C82B1092E900809159
:10513000E80083FD0E943227CF70C093E900CF9131
:10514000089580E8F1CF0E94AA286894B1110C94C8
:10515000392908950E941E2988F09F5798F0B92F89
:105160009927B751B0F0E1F0660F771F881F991F9C
:105170001AF0BA95C9F714C0B13091F00E943829DD
:10518000B1E008950C943829672F782F8827B85FED
:1051900039F0B93FCCF3869577956795B395D9F7F4
:1051A0003EF490958095709561957F4F8F4F9F4FFE
:1051B0000895E89409C097FB3EF49095809570950A
:1051C00061957F4F8F4F9F4F9923A9F0F92F96E953
:1051D000BB279395F695879577956795B795F111C8
:1051E000F8CFFAF4BB0F11F460FF1BC06F5F7F4F65
:1051F0008F4F9F4F16C0882311F096E911C0772377
:1052000021F09EE8872F762F05C0662371F096E87F
:10521000862F70E060E02AF09A95660F771F881F4E
:10522000DAF7880F9695879597F9089557FD905866
:10523000440F551F59F05F3F71F04795880F97FB5A
:10524000991F61F09F3F79F0879508951216130614
:105250001406551FF2CF4695F1DF08C01616170643
:105260001806991FF1CF8695710561050894089578
:10527000E894BB2766277727CB0197F908950E940A
:1052800052290C94C3290E94B52938F00E94BC29E8
:1052900020F0952311F00C94AC290C94B229112420
:1052A0000C9439290E94162970F3959FC1F3950F2C
:1052B00050E0551F629FF001729FBB27F00DB11D9A
:1052C000639FAA27F00DB11DAA1F649F6627B00D2A
:1052D000A11D661F829F2227B00DA11D621F739F13
:1052E000B00DA11D621F839FA00D611D221F749F21
:1052F0003327A00D611D231F849F600D211D822F68
:10530000762F6A2F11249F5750409AF0F1F088238E
:105310004AF0EE0FFF1FBB1F661F771F881F9150BB
:105320005040A9F79E3F510580F00C94AC290C9495
:1053300039295F3FE4F3983ED4F3869577956795D6
:10534000B795F795E7959F5FC1F7FE2B880F911DE5
:105350009695879597F9089597F99F6780E870E08B
:1053600060E008959FEF80EC089500240A941616DB
:10537000170618060906089500240A941216130643
:10538000140605060895092E0394000C11F48823D1
:1053900052F0BB0F40F4BF2B11F460FF04C06F5FED
:1053A0007F4F8F4F9F4F0895AA1BBB1B51E107C032
:1053B000AA1FBB1FA617B70710F0A61BB70B881FA5
:1053C000991F5A95A9F780959095BC01CD01089534
:1053D00097FB072E16F4009407D077FD09D00E94A2
:1053E000D42907FC05D03EF4909581959F4F0895F0
:1053F000709561957F4F0895EE0FFF1F0590F49112
:10540000E02D099481E090E0F8940C944F2AF999EA
:10541000FECF92BD81BDF89A992780B50895A6E187
:10542000B0E044E050E00C94412AA8E1B0E042E052
:1054300050E00C94412A262FF999FECF92BD81BDF0
:10544000F89A019700B4021639F01FBA20BD0FB6C2
:10545000F894FA9AF99A0FBE08950396272F0E949E
:105460001C2A0E941B2A252F0E941C2A242F0C94E0
:105470001C2A0196272F0E941C2A0C941B2ADC014F
:10548000CB01FC01F999FECF06C0F2BDE1BDF89A4F
:10549000319600B40D9241505040B8F70895F894F9
:0254A000FFCF3C
:1054A200FFFD012808140A321EB8214A222522EFE4
:1054B20021BB2101F0F1C66766379431303534974C
:1054C20096339091929395404D3639E40C970C6146
:0C54D2000C280CBB0BD40BED0B060C00DF
:00000001FF
